:020000020000FC
:020000000EC030
:08000C00189518952BC0B1C036
:10001C001EC00FE50DBF04E00EBF0FEF01BB02BB0E
:10002C0003E007BBC09AC19A04E004BB0CEE06B90E
:10003C0003EE07B902E00EBD04E009BF01E003BF07
:10004C000FEF01BD7894000000000000FCCFF89485
:10005C00A8950FEF01BD05B078941895A8950FEFF2
:10006C0001BD02E0031511F0339401C0332410EBF1
:10007C0023E060D0021648F51CE823E05BD00216A2
:10008C0040F514E623E056D0021640F514E423E0C4
:10009C0051D0021640F510E223E04CD0021640F588
:1000AC0014EF22E047D0021640F51CEC22E042D0BF
:1000BC00021640F51CE922E03DD0021648F519E97C
:1000CC0022E038D0021648F52DC00FEF02BB2FD01E
:1000DC002DC00FE702BB2BD0772428C00FE302BB47
:1000EC0026D0772423C00FE102BB21D077241EC079
:1000FC000FE002BB1CD0772419C007E002BB17D05D
:10010C00772414C003E002BB05E009BF77240EC0BE
:10011C0001E002BB05E009BF09C0002702BB07D004
:10012C000FD004C0002702BB02D00AD0189504E0FF
:10013C0009BF089506E0110F221F0A95E1F70895F3
:10014C0001E0071589F07394C098C1983FEF4FEF09
:10015C00A8950FEF01BD4A95F1F73A95C1F73FEF1E
:10016C003A95F1F7C09AC19A089501E0031561F030
:10017C003324002702BBAA9A01E0021511F0239444
:0A018C0003C02224AA98112418953C
:00000001FF
